:020000040000FA
:020000003628A0
:040002000034003492
:08000800C000030EC100451504
:100010000B190F288C182E280B1821283128C51CE5
:1000200007110B118B1213118C109101420803114F
:10003000031012020319920A03189203031C920A76
:1000400031289C1C312802301C069C05851831285B
:100050001315873081000B118B16312807151311EA
:100060008C10410E8300C00E400E0900C4012030E8
:10007000C400703010044406900085018701880197
:1000800086140614061185308E00033093008F30DD
:1000900092008D140130AE00AD01A701A801A901A5
:1000A0005030AA00AD179B148B150B178B17C50189
:1000B000C4010930C3000C1E6928051CC30B642849
:1000C000C514C2010930C3000C12A701A801A9017F
:1000D0005B2805080139C60047064605C8004608E2
:1000E00047064705C9004608C70048187A28491836
:1000F0007E285B28A701A801A9015B28AD13F03079
:100100002805290745198B288A0AC400440EFF20B8
:10011000C2008A03C51045110930C300A701A80118
:06012000A901AD175B28E8
:0201FE00820776
:10020000003400340034003400340034003401344D
:100210000234033404340534063407340834093412
:100220000A340B340C340D340E340F3410341134C2
:100230001234133414341534163417341834193472
:100240001A341B341C341D341E341F342034213422
:1002500022342334243425342634273428342934D2
:100260002A342B342C342D342E342F343034313482
:100270003234333434343534363437343834393432
:100280003A343B343C343D343E343F3440344134E2
:100290004234433444344534463446344734473496
:1002A00048344834493449344A344A344B344B3462
:1002B0004C344C344D344D344E344E344F344F3432
:1002C0005034503451345134523452345334533402
:1002D00054345434553455345634563457345734D2
:1002E00058345834593459345A345A345B345B34A2
:1002F0005C345C345D345D345E345E345F345F3472
:100300006034603461346134623462346334633441
:100310006434643465346534663466346734673411
:1003200068346834693469346A346A346B346B34E1
:100330006C346C346D346D346E346E346F346F34B1
:100340007034703471347134723472347334733481
:100350007434743475347534763476347734773451
:1003600078347834793479347A347A347B347B3421
:100370007B347C347C347C347D347D347D347E34F9
:100380007E347E347F347F347F34803480348034D4
:100390008F348F348F348F348F348F348F348F3445
:1003A0008F348F348F348F348F348F348F348F3435
:1003B0008F348F348F348F348F348F348F348F3425
:1003C0008F348F348F348F348F348F348F348F3415
:1003D0008F348F348F348F348F348F348F348F3405
:1003E0008F348F348F348F348F348F348F348F34F5
:1003F0008F348F348F348F348F348F348F348F34E5
:02400E00A63AD0
:00000001FF
